{
  "_format": "hh-sol-artifact-1",
  "contractName": "AuctionFactory",
  "sourceName": "contracts/AuctionFactory.sol",
  "abi": [
    {
      "inputs": [
        {
          "internalType": "uint256",
          "name": "",
          "type": "uint256"
        }
      ],
      "name": "allAuctions",
      "outputs": [
        {
          "internalType": "address",
          "name": "",
          "type": "address"
        }
      ],
      "stateMutability": "view",
      "type": "function"
    },
    {
      "inputs": [
        {
          "internalType": "address",
          "name": "owner",
          "type": "address"
        },
        {
          "internalType": "address",
          "name": "auction",
          "type": "address"
        }
      ],
      "name": "canRate",
      "outputs": [
        {
          "internalType": "bool",
          "name": "",
          "type": "bool"
        }
      ],
      "stateMutability": "view",
      "type": "function"
    },
    {
      "inputs": [
        {
          "internalType": "uint256",
          "name": "_biddingTime",
          "type": "uint256"
        }
      ],
      "name": "createAuction",
      "outputs": [],
      "stateMutability": "nonpayable",
      "type": "function"
    },
    {
      "inputs": [],
      "name": "getAllAuctions",
      "outputs": [
        {
          "internalType": "address[]",
          "name": "",
          "type": "address[]"
        }
      ],
      "stateMutability": "view",
      "type": "function"
    },
    {
      "inputs": [],
      "name": "getOwners",
      "outputs": [
        {
          "internalType": "address[]",
          "name": "",
          "type": "address[]"
        }
      ],
      "stateMutability": "view",
      "type": "function"
    },
    {
      "inputs": [
        {
          "internalType": "address",
          "name": "",
          "type": "address"
        },
        {
          "internalType": "address",
          "name": "",
          "type": "address"
        },
        {
          "internalType": "address",
          "name": "",
          "type": "address"
        }
      ],
      "name": "hasVoted",
      "outputs": [
        {
          "internalType": "bool",
          "name": "",
          "type": "bool"
        }
      ],
      "stateMutability": "view",
      "type": "function"
    },
    {
      "inputs": [
        {
          "internalType": "uint256",
          "name": "",
          "type": "uint256"
        }
      ],
      "name": "owners",
      "outputs": [
        {
          "internalType": "address",
          "name": "",
          "type": "address"
        }
      ],
      "stateMutability": "view",
      "type": "function"
    },
    {
      "inputs": [
        {
          "internalType": "address",
          "name": "owner",
          "type": "address"
        },
        {
          "internalType": "address",
          "name": "auction",
          "type": "address"
        },
        {
          "internalType": "uint256",
          "name": "rate",
          "type": "uint256"
        }
      ],
      "name": "rate",
      "outputs": [],
      "stateMutability": "nonpayable",
      "type": "function"
    },
    {
      "inputs": [
        {
          "internalType": "address",
          "name": "",
          "type": "address"
        }
      ],
      "name": "ratings",
      "outputs": [
        {
          "internalType": "bool",
          "name": "active",
          "type": "bool"
        },
        {
          "internalType": "uint256",
          "name": "ratingSum",
          "type": "uint256"
        },
        {
          "internalType": "uint256",
          "name": "numberOfRates",
          "type": "uint256"
        }
      ],
      "stateMutability": "view",
      "type": "function"
    }
  ],
  "bytecode": "0x608060405234801561001057600080fd5b50611e95806100206000396000f3fe60806040523480156200001157600080fd5b5060043610620000a05760003560e01c8063a0e67e2b116200006f578063a0e67e2b1462000169578063a44f83e5146200018b578063cbd2bdfd14620001c1578063cca5666614620001e3578063d5563f31146200021957620000a0565b8063025e7c2714620000a5578063165c588114620000db5780638df8e17c14620001115780639e01dfbb1462000131575b600080fd5b620000c36004803603810190620000bd919062000ccf565b62000239565b604051620000d2919062000d46565b60405180910390f35b620000f96004803603810190620000f3919062000ccf565b62000279565b60405162000108919062000d46565b60405180910390f35b6200012f600480360381019062000129919062000d94565b620002b9565b005b6200014f600480360381019062000149919062000df0565b62000520565b604051620001609392919062000e50565b60405180910390f35b6200017362000557565b60405162000182919062000f5b565b60405180910390f35b620001a96004803603810190620001a3919062000f7f565b620005e7565b604051620001b8919062000fdb565b60405180910390f35b620001cb62000623565b604051620001da919062000f5b565b60405180910390f35b620002016004803603810190620001fb919062000ff8565b620006b3565b60405162000210919062000fdb565b60405180910390f35b62000237600480360381019062000231919062000ccf565b62000ac8565b005b600081815481106200024a57600080fd5b906000526020600020016000915054906101000a900473ffffffffffffffffffffffffffffffffffffffff1681565b600381815481106200028a57600080fd5b906000526020600020016000915054906101000a900473ffffffffffffffffffffffffffffffffffffffff1681565b600581111562000300576040517f08c379a0000000000000000000000000000000000000000000000000000000008152600401620002f790620010a0565b60405180910390fd5b6000811162000346576040517f08c379a00000000000000000000000000000000000000000000000000000000081526004016200033d9062001112565b60405180910390fd5b620003528383620006b3565b62000394576040517f08c379a00000000000000000000000000000000000000000000000000000000081526004016200038b9062001184565b60405180910390fd5b6001600260008573ffffffffffffffffffffffffffffffffffffffff1673ffffffffffffffffffffffffffffffffffffffff16815260200190815260200160002060008473ffffffffffffffffffffffffffffffffffffffff1673ffffffffffffffffffffffffffffffffffffffff16815260200190815260200160002060003373ffffffffffffffffffffffffffffffffffffffff1673ffffffffffffffffffffffffffffffffffffffff16815260200190815260200160002060006101000a81548160ff02191690831515021790555080600160008573ffffffffffffffffffffffffffffffffffffffff1673ffffffffffffffffffffffffffffffffffffffff1681526020019081526020016000206001016000828254620004ba9190620011d5565b92505081905550600160008473ffffffffffffffffffffffffffffffffffffffff1673ffffffffffffffffffffffffffffffffffffffff1681526020019081526020016000206002016000815480929190620005169062001232565b9190505550505050565b60016020528060005260406000206000915090508060000160009054906101000a900460ff16908060010154908060020154905083565b60606000805480602002602001604051908101604052809291908181526020018280548015620005dd57602002820191906000526020600020905b8160009054906101000a900473ffffffffffffffffffffffffffffffffffffffff1673ffffffffffffffffffffffffffffffffffffffff168152602001906001019080831162000592575b5050505050905090565b6002602052826000526040600020602052816000526040600020602052806000526040600020600092509250509054906101000a900460ff1681565b60606003805480602002602001604051908101604052809291908181526020018280548015620006a957602002820191906000526020600020905b8160009054906101000a900473ffffffffffffffffffffffffffffffffffffffff1673ffffffffffffffffffffffffffffffffffffffff16815260200190600101908083116200065e575b5050505050905090565b60008273ffffffffffffffffffffffffffffffffffffffff163373ffffffffffffffffffffffffffffffffffffffff1614806200073d5750600160008473ffffffffffffffffffffffffffffffffffffffff1673ffffffffffffffffffffffffffffffffffffffff16815260200190815260200160002060000160009054906101000a900460ff16155b80620007c957508173ffffffffffffffffffffffffffffffffffffffff16634b449cba6040518163ffffffff1660e01b815260040160206040518083038186803b1580156200078b57600080fd5b505afa158015620007a0573d6000803e3d6000fd5b505050506040513d601f19601f82011682018060405250810190620007c6919062001297565b42115b806200088257508173ffffffffffffffffffffffffffffffffffffffff166338af3eed6040518163ffffffff1660e01b815260040160206040518083038186803b1580156200081757600080fd5b505afa1580156200082c573d6000803e3d6000fd5b505050506040513d601f19601f820116820180604052508101906200085291906200130e565b73ffffffffffffffffffffffffffffffffffffffff168373ffffffffffffffffffffffffffffffffffffffff1614155b80620009515750600260008473ffffffffffffffffffffffffffffffffffffffff1673ffffffffffffffffffffffffffffffffffffffff16815260200190815260200160002060008373ffffffffffffffffffffffffffffffffffffffff1673ffffffffffffffffffffffffffffffffffffffff16815260200190815260200160002060003373ffffffffffffffffffffffffffffffffffffffff1673ffffffffffffffffffffffffffffffffffffffff16815260200190815260200160002060009054906101000a900460ff165b1562000961576000905062000ac2565b3373ffffffffffffffffffffffffffffffffffffffff168273ffffffffffffffffffffffffffffffffffffffff166391f901576040518163ffffffff1660e01b815260040160206040518083038186803b158015620009bf57600080fd5b505afa158015620009d4573d6000803e3d6000fd5b505050506040513d601f19601f82011682018060405250810190620009fa919062001357565b73ffffffffffffffffffffffffffffffffffffffff161415801562000aad575060008273ffffffffffffffffffffffffffffffffffffffff166326b387bb336040518263ffffffff1660e01b815260040162000a57919062000d46565b60206040518083038186803b15801562000a7057600080fd5b505afa15801562000a85573d6000803e3d6000fd5b505050506040513d601f19601f8201168201806040525081019062000aab919062001297565b145b1562000abd576000905062000ac2565b600190505b92915050565b6000813360405162000ada9062000c81565b62000ae79291906200139a565b604051809103906000f08015801562000b04573d6000803e3d6000fd5b5090506003819080600181540180825580915050600190039060005260206000200160009091909190916101000a81548173ffffffffffffffffffffffffffffffffffffffff021916908373ffffffffffffffffffffffffffffffffffffffff160217905550600160003373ffffffffffffffffffffffffffffffffffffffff1673ffffffffffffffffffffffffffffffffffffffff16815260200190815260200160002060000160009054906101000a900460ff1662000c7d5760018060003373ffffffffffffffffffffffffffffffffffffffff1673ffffffffffffffffffffffffffffffffffffffff16815260200190815260200160002060000160006101000a81548160ff0219169083151502179055506000339080600181540180825580915050600190039060005260206000200160009091909190916101000a81548173ffffffffffffffffffffffffffffffffffffffff021916908373ffffffffffffffffffffffffffffffffffffffff1602179055505b5050565b610a9880620013c883390190565b600080fd5b6000819050919050565b62000ca98162000c94565b811462000cb557600080fd5b50565b60008135905062000cc98162000c9e565b92915050565b60006020828403121562000ce85762000ce762000c8f565b5b600062000cf88482850162000cb8565b91505092915050565b600073ffffffffffffffffffffffffffffffffffffffff82169050919050565b600062000d2e8262000d01565b9050919050565b62000d408162000d21565b82525050565b600060208201905062000d5d600083018462000d35565b92915050565b62000d6e8162000d21565b811462000d7a57600080fd5b50565b60008135905062000d8e8162000d63565b92915050565b60008060006060848603121562000db05762000daf62000c8f565b5b600062000dc08682870162000d7d565b935050602062000dd38682870162000d7d565b925050604062000de68682870162000cb8565b9150509250925092565b60006020828403121562000e095762000e0862000c8f565b5b600062000e198482850162000d7d565b91505092915050565b60008115159050919050565b62000e398162000e22565b82525050565b62000e4a8162000c94565b82525050565b600060608201905062000e67600083018662000e2e565b62000e76602083018562000e3f565b62000e85604083018462000e3f565b949350505050565b600081519050919050565b600082825260208201905092915050565b6000819050602082019050919050565b62000ec48162000d21565b82525050565b600062000ed8838362000eb9565b60208301905092915050565b6000602082019050919050565b600062000efe8262000e8d565b62000f0a818562000e98565b935062000f178362000ea9565b8060005b8381101562000f4e57815162000f32888262000eca565b975062000f3f8362000ee4565b92505060018101905062000f1b565b5085935050505092915050565b6000602082019050818103600083015262000f77818462000ef1565b905092915050565b60008060006060848603121562000f9b5762000f9a62000c8f565b5b600062000fab8682870162000d7d565b935050602062000fbe8682870162000d7d565b925050604062000fd18682870162000d7d565b9150509250925092565b600060208201905062000ff2600083018462000e2e565b92915050565b6000806040838503121562001012576200101162000c8f565b5b6000620010228582860162000d7d565b9250506020620010358582860162000d7d565b9150509250929050565b600082825260208201905092915050565b7f4d6178696d756d2076616c756520666f72207261746520697320352e00000000600082015250565b600062001088601c836200103f565b9150620010958262001050565b602082019050919050565b60006020820190508181036000830152620010bb8162001079565b9050919050565b7f4d696e696d756d2076616c756520666f72207261746520697320312e00000000600082015250565b6000620010fa601c836200103f565b91506200110782620010c2565b602082019050919050565b600060208201905081810360008301526200112d81620010eb565b9050919050565b7f596f75277265206e6f7420616c6c6f77656420746f20726174652e0000000000600082015250565b60006200116c601b836200103f565b9150620011798262001134565b602082019050919050565b600060208201905081810360008301526200119f816200115d565b9050919050565b7f4e487b7100000000000000000000000000000000000000000000000000000000600052601160045260246000fd5b6000620011e28262000c94565b9150620011ef8362000c94565b9250827fffffffffffffffffffffffffffffffffffffffffffffffffffffffffffffffff03821115620012275762001226620011a6565b5b828201905092915050565b60006200123f8262000c94565b91507fffffffffffffffffffffffffffffffffffffffffffffffffffffffffffffffff821415620012755762001274620011a6565b5b600182019050919050565b600081519050620012918162000c9e565b92915050565b600060208284031215620012b057620012af62000c8f565b5b6000620012c08482850162001280565b91505092915050565b6000620012d68262000d01565b9050919050565b620012e881620012c9565b8114620012f457600080fd5b50565b6000815190506200130881620012dd565b92915050565b60006020828403121562001327576200132662000c8f565b5b60006200133784828501620012f7565b91505092915050565b600081519050620013518162000d63565b92915050565b60006020828403121562001370576200136f62000c8f565b5b6000620013808482850162001340565b91505092915050565b6200139481620012c9565b82525050565b6000604082019050620013b1600083018562000e3f565b620013c0602083018462001389565b939250505056fe60806040523480156200001157600080fd5b5060405162000a9838038062000a98833981810160405281019062000037919062000138565b806000806101000a81548173ffffffffffffffffffffffffffffffffffffffff021916908373ffffffffffffffffffffffffffffffffffffffff1602179055508142620000859190620001ae565b60018190555050506200020b565b600080fd5b6000819050919050565b620000ad8162000098565b8114620000b957600080fd5b50565b600081519050620000cd81620000a2565b92915050565b600073ffffffffffffffffffffffffffffffffffffffff82169050919050565b60006200010082620000d3565b9050919050565b6200011281620000f3565b81146200011e57600080fd5b50565b600081519050620001328162000107565b92915050565b6000806040838503121562000152576200015162000093565b5b60006200016285828601620000bc565b9250506020620001758582860162000121565b9150509250929050565b7f4e487b7100000000000000000000000000000000000000000000000000000000600052601160045260246000fd5b6000620001bb8262000098565b9150620001c88362000098565b9250827fffffffffffffffffffffffffffffffffffffffffffffffffffffffffffffffff038211156200020057620001ff6200017f565b5b828201905092915050565b61087d806200021b6000396000f3fe60806040526004361061007b5760003560e01c80633ccfd60b1161004e5780633ccfd60b146101095780634b449cba1461013457806391f901571461015f578063d57bde791461018a5761007b565b80631998aeef1461008057806326b387bb1461008a5780632a24f46c146100c757806338af3eed146100de575b600080fd5b6100886101b5565b005b34801561009657600080fd5b506100b160048036038101906100ac919061069c565b610341565b6040516100be91906106e2565b60405180910390f35b3480156100d357600080fd5b506100dc610359565b005b3480156100ea57600080fd5b506100f36104bf565b604051610100919061071e565b60405180910390f35b34801561011557600080fd5b5061011e6104e3565b60405161012b9190610754565b60405180910390f35b34801561014057600080fd5b50610149610607565b60405161015691906106e2565b60405180910390f35b34801561016b57600080fd5b5061017461060d565b604051610181919061077e565b60405180910390f35b34801561019657600080fd5b5061019f610633565b6040516101ac91906106e2565b60405180910390f35b6001544211156101f1576040517fd02e774d00000000000000000000000000000000000000000000000000000000815260040160405180910390fd5b6003543411610239576003546040517f4e12c1bb00000000000000000000000000000000000000000000000000000000815260040161023091906106e2565b60405180910390fd5b6000600354146102be5760035460046000600260009054906101000a900473ffffffffffffffffffffffffffffffffffffffff1673ffffffffffffffffffffffffffffffffffffffff1673ffffffffffffffffffffffffffffffffffffffff16815260200190815260200160002060008282546102b691906107c8565b925050819055505b33600260006101000a81548173ffffffffffffffffffffffffffffffffffffffff021916908373ffffffffffffffffffffffffffffffffffffffff160217905550346003819055507ff4757a49b326036464bec6fe419a4ae38c8a02ce3e68bf0809674f6aab8ad300333460405161033792919061081e565b60405180910390a1565b60046020528060005260406000206000915090505481565b600154421015610395576040517f44cee29000000000000000000000000000000000000000000000000000000000815260040160405180910390fd5b600560009054906101000a900460ff16156103dc576040517f61cfdcf800000000000000000000000000000000000000000000000000000000815260040160405180910390fd5b6001600560006101000a81548160ff0219169083151502179055507fdaec4582d5d9595688c8c98545fdd1c696d41c6aeaeb636737e84ed2f5c00eda600260009054906101000a900473ffffffffffffffffffffffffffffffffffffffff1660035460405161044c92919061081e565b60405180910390a160008054906101000a900473ffffffffffffffffffffffffffffffffffffffff1673ffffffffffffffffffffffffffffffffffffffff166108fc6003549081150290604051600060405180830381858888f193505050501580156104bc573d6000803e3d6000fd5b50565b60008054906101000a900473ffffffffffffffffffffffffffffffffffffffff1681565b600080600460003373ffffffffffffffffffffffffffffffffffffffff1673ffffffffffffffffffffffffffffffffffffffff16815260200190815260200160002054905060008111156105fe576000600460003373ffffffffffffffffffffffffffffffffffffffff1673ffffffffffffffffffffffffffffffffffffffff168152602001908152602001600020819055503373ffffffffffffffffffffffffffffffffffffffff166108fc829081150290604051600060405180830381858888f193505050506105fd5780600460003373ffffffffffffffffffffffffffffffffffffffff1673ffffffffffffffffffffffffffffffffffffffff168152602001908152602001600020819055506000915050610604565b5b60019150505b90565b60015481565b600260009054906101000a900473ffffffffffffffffffffffffffffffffffffffff1681565b60035481565b600080fd5b600073ffffffffffffffffffffffffffffffffffffffff82169050919050565b60006106698261063e565b9050919050565b6106798161065e565b811461068457600080fd5b50565b60008135905061069681610670565b92915050565b6000602082840312156106b2576106b1610639565b5b60006106c084828501610687565b91505092915050565b6000819050919050565b6106dc816106c9565b82525050565b60006020820190506106f760008301846106d3565b92915050565b60006107088261063e565b9050919050565b610718816106fd565b82525050565b6000602082019050610733600083018461070f565b92915050565b60008115159050919050565b61074e81610739565b82525050565b60006020820190506107696000830184610745565b92915050565b6107788161065e565b82525050565b6000602082019050610793600083018461076f565b92915050565b7f4e487b7100000000000000000000000000000000000000000000000000000000600052601160045260246000fd5b60006107d3826106c9565b91506107de836106c9565b9250827fffffffffffffffffffffffffffffffffffffffffffffffffffffffffffffffff0382111561081357610812610799565b5b828201905092915050565b6000604082019050610833600083018561076f565b61084060208301846106d3565b939250505056fea26469706673582212200c651ee2166e0bdea0d6abbea24917a1972c509e6d2a7de9ff7b43f605ab1c2464736f6c63430008090033a264697066735822122097330076ab885ebdb05a27054d2c2838b5c5520c50ee0ea7d5dadf58992a4c5064736f6c63430008090033",
  "linkReferences": {},
  "deployedLinkReferences": {}
}