{
  "_format": "hh-sol-artifact-1",
  "contractName": "AuctionFactory",
  "sourceName": "contracts/AuctionFactory.sol",
  "abi": [
    {
      "inputs": [
        {
          "internalType": "uint256",
          "name": "",
          "type": "uint256"
        }
      ],
      "name": "allAuctions",
      "outputs": [
        {
          "internalType": "address",
          "name": "",
          "type": "address"
        }
      ],
      "stateMutability": "view",
      "type": "function"
    },
    {
      "inputs": [
        {
          "internalType": "address",
          "name": "owner",
          "type": "address"
        },
        {
          "internalType": "address",
          "name": "auction",
          "type": "address"
        }
      ],
      "name": "canRate",
      "outputs": [
        {
          "internalType": "bool",
          "name": "",
          "type": "bool"
        }
      ],
      "stateMutability": "view",
      "type": "function"
    },
    {
      "inputs": [
        {
          "internalType": "uint256",
          "name": "_biddingTime",
          "type": "uint256"
        }
      ],
      "name": "createAuction",
      "outputs": [
        {
          "internalType": "address",
          "name": "createdAuction",
          "type": "address"
        }
      ],
      "stateMutability": "nonpayable",
      "type": "function"
    },
    {
      "inputs": [],
      "name": "getAllAuctions",
      "outputs": [
        {
          "internalType": "address[]",
          "name": "",
          "type": "address[]"
        }
      ],
      "stateMutability": "view",
      "type": "function"
    },
    {
      "inputs": [],
      "name": "getOwners",
      "outputs": [
        {
          "internalType": "address[]",
          "name": "",
          "type": "address[]"
        }
      ],
      "stateMutability": "view",
      "type": "function"
    },
    {
      "inputs": [
        {
          "internalType": "address",
          "name": "",
          "type": "address"
        },
        {
          "internalType": "address",
          "name": "",
          "type": "address"
        },
        {
          "internalType": "address",
          "name": "",
          "type": "address"
        }
      ],
      "name": "hasVoted",
      "outputs": [
        {
          "internalType": "bool",
          "name": "",
          "type": "bool"
        }
      ],
      "stateMutability": "view",
      "type": "function"
    },
    {
      "inputs": [
        {
          "internalType": "uint256",
          "name": "",
          "type": "uint256"
        }
      ],
      "name": "owners",
      "outputs": [
        {
          "internalType": "address",
          "name": "",
          "type": "address"
        }
      ],
      "stateMutability": "view",
      "type": "function"
    },
    {
      "inputs": [
        {
          "internalType": "address",
          "name": "owner",
          "type": "address"
        },
        {
          "internalType": "address",
          "name": "auction",
          "type": "address"
        },
        {
          "internalType": "uint8",
          "name": "rate",
          "type": "uint8"
        }
      ],
      "name": "rate",
      "outputs": [],
      "stateMutability": "nonpayable",
      "type": "function"
    },
    {
      "inputs": [
        {
          "internalType": "address",
          "name": "",
          "type": "address"
        }
      ],
      "name": "ratings",
      "outputs": [
        {
          "internalType": "bool",
          "name": "active",
          "type": "bool"
        },
        {
          "internalType": "uint256",
          "name": "ratingSum",
          "type": "uint256"
        },
        {
          "internalType": "uint256",
          "name": "numberOfRates",
          "type": "uint256"
        }
      ],
      "stateMutability": "view",
      "type": "function"
    }
  ],
  "bytecode": "0x608060405234801561001057600080fd5b50611ef8806100206000396000f3fe60806040523480156200001157600080fd5b5060043610620000a05760003560e01c8063a0e67e2b116200006f578063a0e67e2b1462000169578063a44f83e5146200018b578063cbd2bdfd14620001c1578063cca5666614620001e3578063d5563f31146200021957620000a0565b8063025e7c2714620000a5578063165c588114620000db578063977bd70514620001115780639e01dfbb1462000131575b600080fd5b620000c36004803603810190620000bd919062000cf4565b6200024f565b604051620000d2919062000d6b565b60405180910390f35b620000f96004803603810190620000f3919062000cf4565b6200028f565b60405162000108919062000d6b565b60405180910390f35b6200012f600480360381019062000129919062000df7565b620002cf565b005b6200014f600480360381019062000149919062000e53565b6200053f565b604051620001609392919062000eb3565b60405180910390f35b6200017362000576565b60405162000182919062000fbe565b60405180910390f35b620001a96004803603810190620001a3919062000fe2565b62000606565b604051620001b891906200103e565b60405180910390f35b620001cb62000642565b604051620001da919062000fbe565b60405180910390f35b620002016004803603810190620001fb91906200105b565b620006d2565b6040516200021091906200103e565b60405180910390f35b62000237600480360381019062000231919062000cf4565b62000ae7565b60405162000246919062000d6b565b60405180910390f35b600081815481106200026057600080fd5b906000526020600020016000915054906101000a900473ffffffffffffffffffffffffffffffffffffffff1681565b60038181548110620002a057600080fd5b906000526020600020016000915054906101000a900473ffffffffffffffffffffffffffffffffffffffff1681565b60058160ff16111562000319576040517f08c379a0000000000000000000000000000000000000000000000000000000008152600401620003109062001103565b60405180910390fd5b60008160ff161162000362576040517f08c379a0000000000000000000000000000000000000000000000000000000008152600401620003599062001175565b60405180910390fd5b6200036e8383620006d2565b620003b0576040517f08c379a0000000000000000000000000000000000000000000000000000000008152600401620003a790620011e7565b60405180910390fd5b6001600260008573ffffffffffffffffffffffffffffffffffffffff1673ffffffffffffffffffffffffffffffffffffffff16815260200190815260200160002060008473ffffffffffffffffffffffffffffffffffffffff1673ffffffffffffffffffffffffffffffffffffffff16815260200190815260200160002060003373ffffffffffffffffffffffffffffffffffffffff1673ffffffffffffffffffffffffffffffffffffffff16815260200190815260200160002060006101000a81548160ff0219169083151502179055508060ff16600160008573ffffffffffffffffffffffffffffffffffffffff1673ffffffffffffffffffffffffffffffffffffffff1681526020019081526020016000206001016000828254620004d9919062001238565b92505081905550600160008473ffffffffffffffffffffffffffffffffffffffff1673ffffffffffffffffffffffffffffffffffffffff1681526020019081526020016000206002016000815480929190620005359062001295565b9190505550505050565b60016020528060005260406000206000915090508060000160009054906101000a900460ff16908060010154908060020154905083565b60606000805480602002602001604051908101604052809291908181526020018280548015620005fc57602002820191906000526020600020905b8160009054906101000a900473ffffffffffffffffffffffffffffffffffffffff1673ffffffffffffffffffffffffffffffffffffffff1681526020019060010190808311620005b1575b5050505050905090565b6002602052826000526040600020602052816000526040600020602052806000526040600020600092509250509054906101000a900460ff1681565b60606003805480602002602001604051908101604052809291908181526020018280548015620006c857602002820191906000526020600020905b8160009054906101000a900473ffffffffffffffffffffffffffffffffffffffff1673ffffffffffffffffffffffffffffffffffffffff16815260200190600101908083116200067d575b5050505050905090565b60008273ffffffffffffffffffffffffffffffffffffffff163373ffffffffffffffffffffffffffffffffffffffff1614806200075c5750600160008473ffffffffffffffffffffffffffffffffffffffff1673ffffffffffffffffffffffffffffffffffffffff16815260200190815260200160002060000160009054906101000a900460ff16155b80620007e857508173ffffffffffffffffffffffffffffffffffffffff16634b449cba6040518163ffffffff1660e01b815260040160206040518083038186803b158015620007aa57600080fd5b505afa158015620007bf573d6000803e3d6000fd5b505050506040513d601f19601f82011682018060405250810190620007e59190620012fa565b42115b80620008a157508173ffffffffffffffffffffffffffffffffffffffff166338af3eed6040518163ffffffff1660e01b815260040160206040518083038186803b1580156200083657600080fd5b505afa1580156200084b573d6000803e3d6000fd5b505050506040513d601f19601f8201168201806040525081019062000871919062001371565b73ffffffffffffffffffffffffffffffffffffffff168373ffffffffffffffffffffffffffffffffffffffff1614155b80620009705750600260008473ffffffffffffffffffffffffffffffffffffffff1673ffffffffffffffffffffffffffffffffffffffff16815260200190815260200160002060008373ffffffffffffffffffffffffffffffffffffffff1673ffffffffffffffffffffffffffffffffffffffff16815260200190815260200160002060003373ffffffffffffffffffffffffffffffffffffffff1673ffffffffffffffffffffffffffffffffffffffff16815260200190815260200160002060009054906101000a900460ff165b1562000980576000905062000ae1565b3373ffffffffffffffffffffffffffffffffffffffff168273ffffffffffffffffffffffffffffffffffffffff166391f901576040518163ffffffff1660e01b815260040160206040518083038186803b158015620009de57600080fd5b505afa158015620009f3573d6000803e3d6000fd5b505050506040513d601f19601f8201168201806040525081019062000a199190620013ba565b73ffffffffffffffffffffffffffffffffffffffff161415801562000acc575060008273ffffffffffffffffffffffffffffffffffffffff166326b387bb336040518263ffffffff1660e01b815260040162000a76919062000d6b565b60206040518083038186803b15801562000a8f57600080fd5b505afa15801562000aa4573d6000803e3d6000fd5b505050506040513d601f19601f8201168201806040525081019062000aca9190620012fa565b145b1562000adc576000905062000ae1565b600190505b92915050565b600080823360405162000afa9062000ca6565b62000b07929190620013fd565b604051809103906000f08015801562000b24573d6000803e3d6000fd5b5090506003819080600181540180825580915050600190039060005260206000200160009091909190916101000a81548173ffffffffffffffffffffffffffffffffffffffff021916908373ffffffffffffffffffffffffffffffffffffffff160217905550600160003373ffffffffffffffffffffffffffffffffffffffff1673ffffffffffffffffffffffffffffffffffffffff16815260200190815260200160002060000160009054906101000a900460ff1662000c9d5760018060003373ffffffffffffffffffffffffffffffffffffffff1673ffffffffffffffffffffffffffffffffffffffff16815260200190815260200160002060000160006101000a81548160ff0219169083151502179055506000339080600181540180825580915050600190039060005260206000200160009091909190916101000a81548173ffffffffffffffffffffffffffffffffffffffff021916908373ffffffffffffffffffffffffffffffffffffffff1602179055505b80915050919050565b610a98806200142b83390190565b600080fd5b6000819050919050565b62000cce8162000cb9565b811462000cda57600080fd5b50565b60008135905062000cee8162000cc3565b92915050565b60006020828403121562000d0d5762000d0c62000cb4565b5b600062000d1d8482850162000cdd565b91505092915050565b600073ffffffffffffffffffffffffffffffffffffffff82169050919050565b600062000d538262000d26565b9050919050565b62000d658162000d46565b82525050565b600060208201905062000d82600083018462000d5a565b92915050565b62000d938162000d46565b811462000d9f57600080fd5b50565b60008135905062000db38162000d88565b92915050565b600060ff82169050919050565b62000dd18162000db9565b811462000ddd57600080fd5b50565b60008135905062000df18162000dc6565b92915050565b60008060006060848603121562000e135762000e1262000cb4565b5b600062000e238682870162000da2565b935050602062000e368682870162000da2565b925050604062000e498682870162000de0565b9150509250925092565b60006020828403121562000e6c5762000e6b62000cb4565b5b600062000e7c8482850162000da2565b91505092915050565b60008115159050919050565b62000e9c8162000e85565b82525050565b62000ead8162000cb9565b82525050565b600060608201905062000eca600083018662000e91565b62000ed9602083018562000ea2565b62000ee8604083018462000ea2565b949350505050565b600081519050919050565b600082825260208201905092915050565b6000819050602082019050919050565b62000f278162000d46565b82525050565b600062000f3b838362000f1c565b60208301905092915050565b6000602082019050919050565b600062000f618262000ef0565b62000f6d818562000efb565b935062000f7a8362000f0c565b8060005b8381101562000fb157815162000f95888262000f2d565b975062000fa28362000f47565b92505060018101905062000f7e565b5085935050505092915050565b6000602082019050818103600083015262000fda818462000f54565b905092915050565b60008060006060848603121562000ffe5762000ffd62000cb4565b5b60006200100e8682870162000da2565b9350506020620010218682870162000da2565b9250506040620010348682870162000da2565b9150509250925092565b600060208201905062001055600083018462000e91565b92915050565b6000806040838503121562001075576200107462000cb4565b5b6000620010858582860162000da2565b9250506020620010988582860162000da2565b9150509250929050565b600082825260208201905092915050565b7f4d6178696d756d2076616c756520666f72207261746520697320352e00000000600082015250565b6000620010eb601c83620010a2565b9150620010f882620010b3565b602082019050919050565b600060208201905081810360008301526200111e81620010dc565b9050919050565b7f4d696e696d756d2076616c756520666f72207261746520697320312e00000000600082015250565b60006200115d601c83620010a2565b91506200116a8262001125565b602082019050919050565b6000602082019050818103600083015262001190816200114e565b9050919050565b7f596f75277265206e6f7420616c6c6f77656420746f20726174652e0000000000600082015250565b6000620011cf601b83620010a2565b9150620011dc8262001197565b602082019050919050565b600060208201905081810360008301526200120281620011c0565b9050919050565b7f4e487b7100000000000000000000000000000000000000000000000000000000600052601160045260246000fd5b6000620012458262000cb9565b9150620012528362000cb9565b9250827fffffffffffffffffffffffffffffffffffffffffffffffffffffffffffffffff038211156200128a576200128962001209565b5b828201905092915050565b6000620012a28262000cb9565b91507fffffffffffffffffffffffffffffffffffffffffffffffffffffffffffffffff821415620012d857620012d762001209565b5b600182019050919050565b600081519050620012f48162000cc3565b92915050565b60006020828403121562001313576200131262000cb4565b5b60006200132384828501620012e3565b91505092915050565b6000620013398262000d26565b9050919050565b6200134b816200132c565b81146200135757600080fd5b50565b6000815190506200136b8162001340565b92915050565b6000602082840312156200138a576200138962000cb4565b5b60006200139a848285016200135a565b91505092915050565b600081519050620013b48162000d88565b92915050565b600060208284031215620013d357620013d262000cb4565b5b6000620013e384828501620013a3565b91505092915050565b620013f7816200132c565b82525050565b600060408201905062001414600083018562000ea2565b620014236020830184620013ec565b939250505056fe60806040523480156200001157600080fd5b5060405162000a9838038062000a98833981810160405281019062000037919062000138565b806000806101000a81548173ffffffffffffffffffffffffffffffffffffffff021916908373ffffffffffffffffffffffffffffffffffffffff1602179055508142620000859190620001ae565b60018190555050506200020b565b600080fd5b6000819050919050565b620000ad8162000098565b8114620000b957600080fd5b50565b600081519050620000cd81620000a2565b92915050565b600073ffffffffffffffffffffffffffffffffffffffff82169050919050565b60006200010082620000d3565b9050919050565b6200011281620000f3565b81146200011e57600080fd5b50565b600081519050620001328162000107565b92915050565b6000806040838503121562000152576200015162000093565b5b60006200016285828601620000bc565b9250506020620001758582860162000121565b9150509250929050565b7f4e487b7100000000000000000000000000000000000000000000000000000000600052601160045260246000fd5b6000620001bb8262000098565b9150620001c88362000098565b9250827fffffffffffffffffffffffffffffffffffffffffffffffffffffffffffffffff038211156200020057620001ff6200017f565b5b828201905092915050565b61087d806200021b6000396000f3fe60806040526004361061007b5760003560e01c80633ccfd60b1161004e5780633ccfd60b146101095780634b449cba1461013457806391f901571461015f578063d57bde791461018a5761007b565b80631998aeef1461008057806326b387bb1461008a5780632a24f46c146100c757806338af3eed146100de575b600080fd5b6100886101b5565b005b34801561009657600080fd5b506100b160048036038101906100ac919061069c565b610341565b6040516100be91906106e2565b60405180910390f35b3480156100d357600080fd5b506100dc610359565b005b3480156100ea57600080fd5b506100f36104bf565b604051610100919061071e565b60405180910390f35b34801561011557600080fd5b5061011e6104e3565b60405161012b9190610754565b60405180910390f35b34801561014057600080fd5b50610149610607565b60405161015691906106e2565b60405180910390f35b34801561016b57600080fd5b5061017461060d565b604051610181919061077e565b60405180910390f35b34801561019657600080fd5b5061019f610633565b6040516101ac91906106e2565b60405180910390f35b6001544211156101f1576040517fd02e774d00000000000000000000000000000000000000000000000000000000815260040160405180910390fd5b6003543411610239576003546040517f4e12c1bb00000000000000000000000000000000000000000000000000000000815260040161023091906106e2565b60405180910390fd5b6000600354146102be5760035460046000600260009054906101000a900473ffffffffffffffffffffffffffffffffffffffff1673ffffffffffffffffffffffffffffffffffffffff1673ffffffffffffffffffffffffffffffffffffffff16815260200190815260200160002060008282546102b691906107c8565b925050819055505b33600260006101000a81548173ffffffffffffffffffffffffffffffffffffffff021916908373ffffffffffffffffffffffffffffffffffffffff160217905550346003819055507ff4757a49b326036464bec6fe419a4ae38c8a02ce3e68bf0809674f6aab8ad300333460405161033792919061081e565b60405180910390a1565b60046020528060005260406000206000915090505481565b600154421015610395576040517f44cee29000000000000000000000000000000000000000000000000000000000815260040160405180910390fd5b600560009054906101000a900460ff16156103dc576040517f61cfdcf800000000000000000000000000000000000000000000000000000000815260040160405180910390fd5b6001600560006101000a81548160ff0219169083151502179055507fdaec4582d5d9595688c8c98545fdd1c696d41c6aeaeb636737e84ed2f5c00eda600260009054906101000a900473ffffffffffffffffffffffffffffffffffffffff1660035460405161044c92919061081e565b60405180910390a160008054906101000a900473ffffffffffffffffffffffffffffffffffffffff1673ffffffffffffffffffffffffffffffffffffffff166108fc6003549081150290604051600060405180830381858888f193505050501580156104bc573d6000803e3d6000fd5b50565b60008054906101000a900473ffffffffffffffffffffffffffffffffffffffff1681565b600080600460003373ffffffffffffffffffffffffffffffffffffffff1673ffffffffffffffffffffffffffffffffffffffff16815260200190815260200160002054905060008111156105fe576000600460003373ffffffffffffffffffffffffffffffffffffffff1673ffffffffffffffffffffffffffffffffffffffff168152602001908152602001600020819055503373ffffffffffffffffffffffffffffffffffffffff166108fc829081150290604051600060405180830381858888f193505050506105fd5780600460003373ffffffffffffffffffffffffffffffffffffffff1673ffffffffffffffffffffffffffffffffffffffff168152602001908152602001600020819055506000915050610604565b5b60019150505b90565b60015481565b600260009054906101000a900473ffffffffffffffffffffffffffffffffffffffff1681565b60035481565b600080fd5b600073ffffffffffffffffffffffffffffffffffffffff82169050919050565b60006106698261063e565b9050919050565b6106798161065e565b811461068457600080fd5b50565b60008135905061069681610670565b92915050565b6000602082840312156106b2576106b1610639565b5b60006106c084828501610687565b91505092915050565b6000819050919050565b6106dc816106c9565b82525050565b60006020820190506106f760008301846106d3565b92915050565b60006107088261063e565b9050919050565b610718816106fd565b82525050565b6000602082019050610733600083018461070f565b92915050565b60008115159050919050565b61074e81610739565b82525050565b60006020820190506107696000830184610745565b92915050565b6107788161065e565b82525050565b6000602082019050610793600083018461076f565b92915050565b7f4e487b7100000000000000000000000000000000000000000000000000000000600052601160045260246000fd5b60006107d3826106c9565b91506107de836106c9565b9250827fffffffffffffffffffffffffffffffffffffffffffffffffffffffffffffffff0382111561081357610812610799565b5b828201905092915050565b6000604082019050610833600083018561076f565b61084060208301846106d3565b939250505056fea26469706673582212200c651ee2166e0bdea0d6abbea24917a1972c509e6d2a7de9ff7b43f605ab1c2464736f6c63430008090033a264697066735822122027f0d19af7f10f2b5cf06462e02a4286bcda7e2570174a07447d127ad5d66cd664736f6c63430008090033",
  "linkReferences": {},
  "deployedLinkReferences": {}
}